:100000006F00203E000000003201000034010000BB
:1000100000000000000000000000000000000000E0
:1000200000000000000000000000000000000000D0
:10003000E003000000000000E003000000000000FA
:10004000E0030000E0030000E0030000E003000024
:10005000E0030000E0030000E0030000E003000014
:10006000E0030000E0030000E0030000E003000004
:10007000E0030000E0030000E0030000E0030000F4
:10008000E0030000E0030000E0030000E0030000E4
:10009000E0030000E0030000E003000000000000B7
:1000A000511126C022C206C4828282441244A24058
:1000B00031018280634E050263C305042E86AA8542
:1000C0007D5515C285466378B6006356C0000606A6
:1000D0008606E36CB6FE014563E4C500918D558D3F
:1000E00085820582F5FA82808682C93F2E858282CA
:1000F0003305A04063D70500B305B040C1B7B305D1
:10010000B0408682653F3305A0408282868263C705
:100110000500634905005D372E858282B305B04036
:10012000E35B05FE3305A040513F3305B0408282BA
:10013000000001A0B707EFBE37E700E0938707088C
:100140003CC701A0EFF2DFF50565130181FD854590
:10015000130505820D2B91477C8637150140E14739
:100160003ECA6C008D47130505403EC871213734E7
:1001700001409307F0023EC08A859307703E130545
:1001800004C03EC20523C167938707062C081305E8
:1001900004C03ECC231F010023100102992B13053C
:1001A00004C08545652B8545130504C0E123130173
:1001B0008102E5BDEFF2DFEE1301C1FD85451305B8
:1001C0000022D12137150140C1478A85130505401A
:1001D0007C8002C4152137240140B7070E003ECCB5
:1001E0006C008547130504402300F10202C602C8D3
:1001F00002CA02CE792C8546054691451305044076
:100200003526854513050440E12C13050440CD2413
:10021000930404402685D52475FD13050440372436
:100220000140C524130404402285CD2475FD13012B
:100230004102A5BDEFF2DFE63725014085451305F4
:10024000054037240140F92493040440894526855C
:10025000792E6DDD13050440792681BDEFF25FE450
:100260000564B120930404FAF13DA937E13763F343
:10027000A400268513170501418393074006637484
:10028000F700130540064205418193175500898FF9
:100290008A073E959305F4FF0E050D35931505016C
:1002A00037350140C181130505C0C521C1B7EFF243
:1002B0003FDF371402401C403707FFF8611193E716
:1002C00017001CC05C404145F98F5CC01C403707DB
:1002D000F7FE7D17F98F1CC01C403707FCFF7D1708
:1002E000F98F1CC05C4041777D17F98F5CC0B70760
:1002F0009F001CC441261C4C3706020093E70702EE
:100300001CCCB717014003A707409386074013771B
:10031000F7F023A0E74003A707401367070823A0CF
:10032000E74089479CCA02C002C21C4C3707014003
:10033000A16693E717001CCC5C43D58F5CC31C40BF
:100340004167B7160240D98F1CC009679C42F18FE4
:100350003EC2824785073EC0924781E78247E397C6
:10036000E7FEB71702409C431397E7006358070660
:1003700085473EC2124785476310F706B7270240FC
:100380009843C176FD16719B98C398431367170075
:1003900098C3B7170240D843D8C3D843758FD8C382
:1003A000D843C166558FD8C39843B7060001558F0F
:1003B00098C3984393166700E3DD06FED843B7164B
:1003C0000240719BD8C3D84313672700D8C3214785
:1003D000DC42B18BE39EE7FE2101C1B902C259BFE5
:1003E00001A0970100209381E141138101001305D1
:1003F000000A970500209385E5C017060020130624
:1004000066C063FAC5008322050023A055001105CC
:100410009105E3EAC5FE1305007997050020938551
:1004200065BE170600201306E6BD63FAC5008322E9
:10043000050023A0550011059105E3EAC5FE170547
:100440000020130525BC970500209385A5BB637785
:10045000B500232005001105E36DB5FEB7220000AD
:1004600093820288739002308D427390428097028B
:100470000000938222B993E2320073905230EFF081
:100480001FE3970200009382A2DD73901234730081
:1004900020305C413707F1FF1307F7EF7D8FDC4118
:1004A0009441A207D58FD98F5CC11C4537F7F1FF66
:1004B0001307D77FD4457D8F9C49D58F94458606F9
:1004C000D58FD98F1CC55C55370710FF7D177D8FE1
:1004D000DC29FD1793F7F70FD207D98F5CD58280FF
:1004E0001C4589C593E717001CC58280F99BEDBFA9
:1004F0001C4593E787001CC5828008450D8105894E
:1005000082801C4593E747001CC58280084509810D
:10051000058982801C4591C537075000D98F1CC5BD
:1005200082803707B0FF7D17F98FD5BFA54763F8E5
:10053000B704138765FF931717008322C500BA9786
:100540001D433313F3001343F3FF33735300B39787
:10055000F600B3E767005CC5994763E3C7047D16FF
:10056000931726003E965859FD47B397C70093C787
:10057000F7FFF98FB395C500DD8D4CD98280939735
:10058000150003230501AE971D473317F7001347E6
:10059000F7FF33776700B397F6005D8F18C96DBF1B
:1005A000B14763E2C7026516931726003E961859B5
:1005B000FD47B397C70093C7F7FFF98FB395C50001
:1005C000DD8D0CD982804D161317260054553A96AE
:1005D000FD47B397C70093C7F7FFF58FB395C500E5
:1005E000DD8D4CD58280684542054181828008417D
:1005F0006D8D3335A0008280944593F7060193F208
:10060000F60081C7DC41B3E2F20083D3050093F723
:10061000F30FA5C303230500611122C226C0814741
:10062000130480029304800405473316F70033F760
:10063000C3006312E602939527003D473317B700C6
:100640001347F7FF33736700B395B20033E36500D8
:10065000639D860050C985072147E397E7FC124454
:1006600023206500824421018280E39696FE10C912
:10067000DDB78280371702401C430E0593F777F0F1
:100680005D8D08C3828099C5371702401C4F5D8D70
:1006900008CF8280B7170240984F1345F5FF798D38
:1006A00088CF82801E2137370140130707C0C20759
:1006B000C1836306E500370700406316E500BA21F1
:1006C00093F7F7F8D98FFA2193F7F7CFC207C183D1
:1006D000D98F1EA1DE215EB59E211EB5B737014020
:1006E000938707C06314F5009C251EB985475EA952
:1006F00082801E31922103D32500C207C183F99B5A
:10070000C207C1831EB11E3156211A2DC207C183F3
:10071000420741831377C7F8518F9225F59BC20694
:1007200033666600D18F37360140130606C0C1829A
:100730006310C502B225DD9B03D3E500D18FD22122
:10074000ED9B93F6F6CFD18FD22533666600D18E1E
:1007500056A11AADFA2158D91EB182801E2189C531
:1007600093E717001EA18280C207C183F99BC207CD
:10077000C183CDBF8357450491C52167D98F23120B
:10078000F5048280C607C583DDBF4CD98280000096
:00000001FF
