:100000006F00E05900000000560100005801000098
:1000100000000000000000000000000000000000E0
:1000200000000000000000000000000000000000D0
:100030009C050000000000009C050000000000007E
:100040009C0500009C0500009C0500009C0500002C
:10005000000300009C0500009C0500009C050000BA
:100060009C0500009C0500009C0500009C0500000C
:100070009C0500009C0500009C0500009C050000FC
:100080009C0500009C0500009C0500009C050000EC
:100090009C0500009C0500009C050000000000007D
:0C00A000730050107D157DFD8280000073
:1000AC00511126C022C206C4828282441244A2404C
:1000BC00310182802A86014593F6150091C2329552
:1000CC0085810606F5F9828000000000634E05026A
:1000DC0063C305042E86AA857D5515C285466378B3
:1000EC00B6006356C00006068606E36CB6FE0145F4
:1000FC0063E4C500918D558D85820582F5FA828069
:10010C008682C93F2E8582823305A04063D70500C5
:10011C00B305B040C1B7B305B0408682653F330527
:10012C00A0408282868263C70500634905005D3763
:10013C002E858282B305B040E35B05FE3305A040FB
:10014C00513F3305B0408282000001A0B707EFBEDB
:10015C0037E700E0938707083CC701A0EFF25FF494
:10016C000565130181FD854513050581EF009000A0
:10017C00C1477C86E1473ECA6C008D47371501406C
:10018C003EC8EF00C06D37340140DD473EC08A8564
:10019C0093073006130504C03EC2EF007001C1671F
:1001AC00938707062C08130504C03ECC231F0100BF
:1001BC0023100102EF00B004130504C0A145EF00A9
:1001CC00700F130504C08545EF00300D130504C0F6
:1001DC008545EF00B0098545130504C0EF00900A72
:1001EC0013018102D9B5EFF2BFEB930730069305EB
:1001FC00300663E3A700AA85C20537350140C181EB
:10020C00130505C0EF00700C4DB5EFF27FE913013B
:10021C00C1FD854513050022EF00C075371501405F
:10022C0091478A8513050540372401407C8002C420
:10023C003D25130504403121854737070E006C001E
:10024C00130504403ECA3ACC2300F10202C602C890
:10025C0002CE11299D4605468D45130504404D21BE
:10026C00854513050440B92113050440A1299304C5
:10027C0004402685A92975FD130504403724014047
:10028C009929930404402685A12975FD85451305FC
:10029C00044099291301410209BDEFF27FE0372593
:1002AC00014013050540112B09B5EFF27FDF130157
:1002BC00C1FD854545457D2D9307800285442C0065
:1002CC00371501403EC86484592B814509453125B9
:1002DC000544A147480822CA3ECE22D002CCFD21BB
:1002EC00930740110A857C80448122C2012D1301A1
:1002FC00410265BB130181FD2ACA054506D216D001
:10030C001ACE1ECC2EC832C636C43AC23EC02523E5
:10031C0009CD37070020130707011C23054593F768
:10032C00F70F93B717001CA33523925082527243D8
:10033C00E2435245C2453246A24612478247130158
:10034C00810273002030EFF2BFD57111092AB70476
:10035C000020B52F2135553D893F938704019C23FF
:10036C0093F7F70F85CB37250140894513050540D9
:10037C00892911CD1D3793171500AA978E073E9525
:10038C009305F03F0A05993342054181A93D294562
:10039C008D2FE1B70145813DB7F700E003A707D1E9
:1003AC00118B51CB9307800873B007300F100000EE
:1003BC00B707014003A7474083A6074003A6474061
:1003CC00D18E23A2D74037F400E0832604D18327B3
:1003DC0004D13AC093F6060293E787022328F4D09F
:1003EC00832704D14D4593F7F7FDD58F2328F4D0FF
:1003FC00832704D193E787002328F4D097000020AB
:10040C00E78080BF832704D14D4593E787002328DD
:10041C00F4D097000020E78020BE832704D1918B75
:10042C008DCB0247B707014023A2E7409307800812
:10043C0073A00730A9BF03A707D11367070123A82F
:10044C00E7D09307800873B007300F100000014706
:10045C009DBF832704D1BD9B2328F4D0C1BFEFF2ED
:10046C003FC4371402401C403707FFF8611193E773
:10047C0017001CC05C404145F98F5CC01C4037071D
:10048C00F7FE7D17F98F1CC01C403707FCFF7D174A
:10049C00F98F1CC05C4041777D17F98F5CC0B707A2
:1004AC009F001CC47D291C4C3706020093E70702F1
:1004BC001CCCB717014003A707409386074013775E
:1004CC00F7F023A0E74003A707401367070823A012
:1004DC00E74089479CCA02C002C21C4C3707014046
:1004EC00A16693E717001CCC5C43D58F5CC31C4002
:1004FC004167B7160240D98F1CC009679C42F18F27
:10050C003EC2824785073EC0924781E78247E39708
:10051C00E7FEB71702409C431397E70063580706A2
:10052C0085473EC2124785476310F706B72702403E
:10053C009843C176FD16719B98C3984313671700B7
:10054C0098C3B7170240D843D8C3D843758FD8C3C4
:10055C00D843C166558FD8C39843B7060001558F51
:10056C0098C3984393166700E3DD06FED843B7168D
:10057C000240719BD8C3D84313672700D8C32147C7
:10058C00DC42B18BE39EE7FE210105B602C259BFE6
:10059C0001A09701002093812127138101FF1305EE
:1005AC00000A97050020938525A517060020130641
:1005BC0066A563FAC5008322050023A0550011052A
:1005CC009105E3EAC5FE170500001305655797056D
:1005DC000020938525A3170600201306E6A263FAD4
:1005EC00C5008322050023A0550011059105E3EAFF
:1005FC00C5FE17050020130525A19385C1806377DF
:10060C00B500232005001105E36DB5FEB7220000EF
:10061C0093820288739002308D42739042809702CD
:10062C0000009382629D93E2320073905230EFF09F
:10063C001FE397020000938242D17390123473002F
:10064C002030B727014093870740631DF500EFF278
:10065C003FA58545130500202D2E8145130500204F
:10066C000D2EA1B482805C413707F1FF1307F7EF21
:10067C007D8FDC419441A207D58FD98F5CC11C457D
:10068C0037F7F1FF1307D77FD4457D8F9C49D58F62
:10069C0094458606D58FD98F1CC55C55370710FF3E
:1006AC007D177D8FDC29FD1793F7F70FD207D98FB4
:1006BC005CD582801C4589C593E717001CC58280D8
:1006CC00F99BEDBF1C4593E787001CC5828008454C
:1006DC000D81058982801C4593E747001CC58280EB
:1006EC0008450981058982801C4591C53707500052
:1006FC00D98F1CC582803707B0FF7D17F98FD5BF06
:10070C00A54763F8B704138765FF93171700832277
:10071C00C500BA971D433313F3001343F3FF337330
:10072C005300B397F600B3E767005CC5994763E3E2
:10073C00C7047D16931726003E965859FD47B3976C
:10074C00C70093C7F7FFF98FB395C500DD8D4CD962
:10075C0082809397150003230501AE971D4733172D
:10076C00F7001347F7FF33776700B397F6005D8FF9
:10077C0018C96DBFB14763E2C7026516931726000F
:10078C003E961859FD47B397C70093C7F7FFF98FEB
:10079C00B395C500DD8D0CD982804D16131726003C
:1007AC0054553A96FD47B397C70093C7F7FFF58F9B
:1007BC00B395C500DD8D4CD58280684542054181DD
:1007CC00828008416D8D3335A0008280584103230F
:1007DC0005004C4537060140930706403E9793466B
:1007EC00F3FFB1C583250640F58D2320B640D043D9
:1007FC00F18ED4C31443B3E6660014C3184190477A
:10080C009346F7FF758E90C7D047F18ED4C7144529
:10081C0041466399C6009447D98E94C7D447558FE7
:10082C00D8C78280B6979443558F98C382801C4357
:10083C00F58F1CC38280B70701401387074083A73D
:10084C000740584B698F09C77D8D3335A0008280D6
:10085C0001458280B707014023AAA74082809445B6
:10086C0093F7060193F2F60081C7DC41B3E2F20084
:10087C0083D3050093F7F30FA5C303230500611180
:10088C0022C226C0814713048002930480040547CA
:10089C003316F70033F7C3006312E6029395270073
:1008AC003D473317B7001347F7FF33736700B39512
:1008BC00B20033E36500639D860050C9850721476C
:1008CC00E397E7FC124423206500824421018280D7
:1008DC00E39696FE10C9DDB78280370701401447B6
:1008EC0086058D47B397B70093C7F7FFF58F1CC7E5
:1008FC001C47B315B500DD8D0CC78280B7070020EF
:10090C0083A64701854718216390F6021C31639C2E
:10091C00D7023C219A0793E707F8B7E600E093F774
:10092C00F70FBA962380F6408546935757003397B6
:10093C00E600544189CE938707048A07B7E600E0A6
:10094C00B69798C38280EDF33C219A07F9B7938749
:10095C000706B7E600E08A07B69798C30F100000A9
:10096C008280371702401C430E0593F777F05D8D9C
:10097C0008C3828099C5371702401C4F5D8D08CF84
:10098C008280B7170240984F1345F5FF798D88CFB9
:10099C00828099C5371702405C475D8D48C78280BD
:1009AC00B7170240D8471345F5FF798DC8C7828029
:1009BC001E2137370140130707C0C207C1836306E6
:1009CC00E500370700406316E500BA2193F7F7F806
:1009DC00D98FFA2193F7F7CFC207C183D98F1EA104
:1009EC00DE215EB59E211EB5B7370140938707C047
:1009FC006314F5009C251EB985475EA982801A31C7
:100A0C00FD77FD17F98F1EB1035305025A215E2D98
:100A1C00E5769386F6CFFD8E9E2113160701BA213B
:100A2C00A207DD8EF977FD17B3F7670003D38500B6
:100A3C00C2064182336767003207D98F37370140CE
:100A4C00C207130707C0C182C183631BE50071771E
:100A5C007D17718FD2251A06518F1316070141820B
:100A6C00FA2152A156AD38C11EB182801E2189C512
:100A7C0093E717001EA18280C207C183F99BC207AE
:100A8C00C183CDBF8357450491C52167D98F2312EC
:100A9C00F5048280C607C583DDBF1E2189C593E797
:100AAC0007081EA18280C207C18393F7F7F7C2071C
:100ABC00C183C5BF5A2DFD779387F77FF98FA205A8
:100ACC00CD8FC207C1835EAD82802CC18280EFF2D4
:100ADC002FDDB707002003A5C700B7157A00938553
:100AEC000520EFF02FDF1375F50F2385A1809317E9
:100AFC005500898F8A073E950E052394A1806FF0CF
:100B0C00CFDAEFF2EFD937F400E05C40AA85F99B1D
:100B1C005CC003D58180EFF0EFD908C82324040012
:100B2C001C4093E717001CC0B7F700E0D843058BB7
:0C0B3C0075DF9843799B98C36FF02FD7AA
:040B4800006CDC025F
:00000001FF
